:100000000C94BA000C94D7000C94D7000C94D70031
:100010000C94D7000C94D7000C94D7000C94D70004
:100020000C94D7000C94D7000C94D7000C94D700F4
:100030000C94D7000C94D7000C94D7000C94D700E4
:100040000C94D7000C94D7000C94D7000C94D700D4
:100050000C94D70000000000000000000000000029
:1000600000001FF000000000FFFE00000003FFFF83
:100070008000000FFFFFE000001FFFFFF000007F87
:10008000FFFFFC0000FFFFFFFE0001FFFFFFFF007E
:1000900003FFFFFFFF8003FFF9FFFF8007FFF87FEB
:1000A000FFC007FFFC3FFFC00FFFFC3FFFE00FFF5B
:1000B000FC1FFFE01FFFF81FFFF01FFFF80FFFF00E
:1000C0001FFFF80FFFF03FFFF007FFF83FFFF007BB
:1000D000FFF83FFFE003FFF83FFFE003FFF83FFFBB
:1000E000C003FFF83FFFC001FFF83FFF8001FFF8AA
:1000F0003FFF8001FFF83FFF0001FFF81FFF0001F5
:10010000FFF01FFF0001FFF01FFF0001FFF00FFFD6
:100110000001FFE00FFF8003FFE007FFC007FFC003
:1001200007FFE00FFFC003FFF83FFF8001FFFFFF65
:10013000FF0001FFFFFFFF0000FFFFFFFE00007F49
:10014000FFFFFC00001FFFFFF000000FFFFFE000BB
:100150000003FFFF80000000FFFE000000001FF012
:10016000000000000000000000000000000000008F
:100170000000000011241FBECFE5D8E0DEBFCDBFD8
:1001800010E0A0E6B0E0E8E6FAE002C005900D92CB
:10019000A037B107D9F724E0A0E7B0E001C01D9275
:1001A000A039B207E1F70E9426050C9432050C94A1
:1001B000000028E030E090E8AF98492F482311F084
:1001C000AE9A01C0AE98AF9A969521503109A1F729
:1001D0000895A69AAE9AA79AAF9AA59AAD9AA49AAC
:1001E000AC9A0895AC980C94D900AC9A0C94D900B0
:1001F000CF93DF9380E00E94F20080E10E94F20042
:1002000080E40E94F200AC9AC0E7D0E089910E949D
:10021000D90084E0C037D807C9F7DF91CF9108959E
:100220008038910530F577FD24C0603471050CF5F8
:10023000FB0123E0F595E7952A95E1F767707727AD
:10024000F695FE2FEE27F795E795E80FF91FE05991
:10025000FF4F81E090E0062E01C0880F0A94EAF774
:10026000442319F09081982B03C0809590819823A6
:100270009083089580E094E0E0E7F0E0DF019C01E6
:100280001D9221503040E1F708950F931F93CF93B3
:10029000DF931F92CDB7DEB7182F062F49830E9438
:1002A000E9004981411115C0AD9A2FEF87ED90E02B
:1002B000215080409040E1F700C00000AD98EFEF82
:1002C000F7ED20E0E150F0402040E1F700C00000F1
:1002D000AD9A8EEA0E94F20085ED0E94F200802F16
:1002E0000E94F20088EA0E94F2008FE30E94F2006E
:1002F00083ED0E94F20080E00E94F20080E40E9400
:10030000F2008DE80E94F200113011F480E101C08A
:1003100084E10E94F20080E20E94F20080E00E94EC
:10032000F20081EA0E94F20088EC0E94F2008AED5D
:100330000E94F20082E10E94F20081E80E94F20035
:10034000113011F48FE901C08FEC0E94F20089EDA9
:100350000E94F200113011F482E201C081EF0E948C
:10036000F20088EA0E94F2008FE30E94F2008AED18
:100370000E94F20082E10E94F2008BED0E94F200E6
:1003800080E40E94F20084EA0E94F20086EA0E9461
:10039000F2008FEA0E94F2000F90DF91CF911F913F
:1003A0000F910C94F8002F923F924F925F926F92B0
:1003B0007F928F929F92AF92BF92CF92DF92EF92F5
:1003C000FF920F931F93CF93DF93CDB7DEB727979D
:1003D0000FB6F894DEBF0FBECDBF4C013B012A0122
:1003E000802F5E2D022F10E0180127E0220E311C15
:1003F00063E0359427946A95E1F7A12CB12CC12CC8
:10040000D12C282F30E03A83298320E830E03EC009
:10041000EE81FF8143E0F595E7954A95E1F7EA0D16
:10042000FB1DE40DF51DE491F0E08E819F81877046
:100430009927B90102C0759567958A95E2F7E62379
:10044000F723EF2B71F0452FB7018E819F81880D27
:10045000991D2C833D835B830E9410015B813D814C
:100460002C818E819F8101969F838E8305C01F8280
:100470001E827601E60CF71CEE81FF81E017F10782
:100480003CF2FFEFCF1ADF0AA20CB31C69817A811C
:10049000C616D70664F327960FB6F894DEBF0FBED4
:1004A000CDBFDF91CF911F910F91FF90EF90DF9023
:1004B000CF90BF90AF909F908F907F906F905F9004
:1004C0004F903F902F900895FC01680F791F80E0B6
:1004D00048E10FC0219198E0322F3827532F5170F7
:1004E00030FD84278695513009F480682695915017
:1004F00099F7E617F70771F708950F931F93CF93B6
:10050000DF93CDB7DEB760970FB6F894DEBF0FBEAE
:10051000CDBF90E1E0E6F0E0DE01119601900D9292
:100520009A95E1F7DB019C911196FC91E0E0E92BB3
:10053000803179F4DF01AE7FE3E0AA0FBB1FEA95BB
:10054000E1F7FB019681ECE0F0E0E91BF109EA0F2D
:10055000FB1FF7FF07C091E0DA019C93F195E1954D
:10056000F10902C0DA011C92883281F4DB01149691
:100570008C91982F9076903649F086FF02C0EE7FDE
:1005800005C085FF02C0EC7F01C0E87FCF0144E0D9
:10059000969587954A95E1F7D9018C93EF70FF27DF
:1005A000EC0FFD1F8181F801808380E060960FB61B
:1005B000F894DEBF0FBECDBFDF91CF911F910F9199
:1005C0000895882319F0719561957109442319F0F4
:1005D000319521953109621773074CF081E090E065
:1005E0002617370714F080E090E09C0102C02FEF3F
:1005F0003FEFC90108950F931F93CF93DF93EC0151
:100600008B01B80188810E949504888381508D3FB9
:1006100030F4F8018081883211F0803191F7DF9158
:10062000CF911F910F910895FF920F931F93CF9336
:10063000DF93CDB7DEB729970FB6F894DEBF0FBEB4
:10064000CDBF8FEF898700E714E0F12C1DC0BE01FC
:100650006F5F7F4FCE0109960E94FB0289858F3F15
:10066000C9F08E3FB9F0FE01319620E030E0819173
:10067000D801A20FB31F8C932F5F3F4F2830310555
:10068000B1F7F394085F1F4F8985882319F084E040
:10069000F812DDCF8F2D29960FB6F894DEBF0FBE6E
:1006A000CDBFDF91CF911F910F91FF900895CF9310
:1006B000DF93EC010E94530481110FC0BE0184EB53
:1006C0000E94E10481E00E946D04C82F0E9453043F
:1006D00081E0C11103C080E001C081E0DF91CF91D2
:1006E00008951F93CF93DF93182FEB010E945304BB
:1006F00081110DC00E944A04882359F0BE0184E490
:100700000E94E104113039F00E944D0404C081E0E0
:1007100003C082E001C080E0DF91CF911F91089576
:100720006F927F928F929F92AF92BF92CF92DF9201
:10073000EF92FF920F931F93CF93DF93CDB7DEB766
:1007400029970FB6F894DEBF0FBECDBF6C015B01D9
:100750004A0189010E945304811128C0B6018EEB21
:100760000E94E104EE24E394F12CEC0EFD1E3E0108
:100770008AE0680E711C0E949204F70181937F0148
:10078000E615F705C1F769E070E0CE0101960E9419
:10079000640281110DC09401A501BE016F5F7F4FFE
:1007A000F60180810E947D0280E003C081E001C0EB
:1007B00083E029960FB6F894DEBF0FBECDBFDF9160
:1007C000CF911F910F91FF90EF90DF90CF90BF904E
:1007D000AF909F908F907F906F9008957F928F92AF
:1007E0009F92AF92BF92CF92DF92EF92FF920F93C0
:1007F0001F93CF93DF93CDB7DEB729970FB6F89449
:10080000DEBF0FBECDBF782E6B015A0189010E9459
:100810005304811128C060E070E08EEB0E94E10477
:10082000EE24E394F12CEC0EFD1E4E018AE0880EBE
:10083000911C0E949204F70181937F01E815F9054C
:10084000C1F769E070E0CE0101960E946402811157
:100850000CC09501A601BE016F5F7F4F872D0E94DE
:100860007D0280E003C081E001C083E029960FB6DD
:10087000F894DEBF0FBECDBFDF91CF911F910F91D6
:10088000FF90EF90DF90CF90BF90AF909F908F90B0
:100890007F90089586B382700895C19AB99A089599
:1008A000C198B9980895C198B99A8FE295E00197D7
:1008B000F1F79FB7F894B998E3EFEA95F1F70000E4
:1008C00086B39FBFE8E7F4E03197F1F700C0B19B32
:1008D00002C08270089581E008959FB7F894B99A94
:1008E00024E02A95F1F78111B99827E32A95F1F7C9
:1008F0000000B19B80E026EA2A95F1F7B9989FBFE6
:100900000895CF93DF93C82FD8E08C2F81700E9479
:100910006D04C6958111C068D150B9F78C2FDF9155
:10092000CF9108958FEF0C948104DF92EF92FF92A4
:100930000F931F93CF93DF93E82EEB010E94530494
:10094000811131C080EF0E948104F12C10E498EFF6
:10095000D92ED10E81E00E946D04082F81E00E9403
:100960006D04882319F0002369F020C001110AC02A
:100970001E1530F0888180FF05C0E11201C002C061
:10098000F12E01E0802F0E946D049881969501114F
:1009900001C001C09068988311501D11DBCF2196D2
:1009A0001111D5CF05C0FF24FA9402C08EEFF82EA6
:1009B0008F2DDF91CF911F910F91FF90EF90DF90DE
:1009C0000895FF920F931F93CF93DF93F82EEB01BF
:1009D0000E945304209769F085E50E9481048E01EE
:1009E000085F1F4F89910E948104C017D107D1F77A
:1009F00003C08CEC0E9481048F2DDF91CF911F9159
:100A00000F91FF900C948104EF920F938823D1F003
:100A1000C1982FEF8FEB91E2215080409040E1F799
:100A200000C00000EE24E39400E120E144E550E042
:100A300060E370E080E390E00E94D3010F91EF90BB
:100A40000C94F800C19A0F91EF90089540E060EF88
:100A500082E00E94450181E80E94F20080E00E944D
:080A6000F200FFCFF894FFCF74
:100A68000001010202030404050606070708090934
:00000001FF
