:100000000C9438030C9455030C9455030C9455032D
:100010000C9455030C9455030C9455030C94550300
:100020000C9455030C9455030C9455030C945503F0
:100030000C9455030C9455030C9455030C945503E0
:100040000C9455030C9455030C9455030C945503D0
:100050000C94550300000000003E5B4F5B3E3E6B7E
:100060004F6B3E1C3E7C3E1C183C7E3C181C577D52
:10007000571C1C5E7F5E1C00183C1800FFE7C3E79E
:10008000FF0018241800FFE7DBE7FF30483A060EB0
:100090002629792926407F050507407F05253F5AF7
:1000A0003CE73C5A7F3E1C1C08081C1C3E7F142267
:1000B0007F22145F5F005F5F06097F017F00668912
:1000C000956A606060606094A2FFA29408047E0458
:1000D0000810207E201008082A1C08081C2A08087E
:1000E0001E101010100C1E0C1E0C30383E3830063E
:1000F0000E3E0E06000000000000005F000000073A
:10010000000700147F147F14242A7F2A1223130867
:10011000646236495620500008070300001C224143
:10012000000041221C002A1C7F1C2A08083E0808E7
:100130000080703000080808080800006060002097
:10014000100804023E5149453E00427F400072497A
:100150004949462141494D331814127F102745451E
:1001600045393C4A49493141211109073649494934
:1001700036464949291E00001400000040340000A2
:10018000000814224114141414140041221408020B
:10019000015909063E415D594E7C1211127C7F497E
:1001A0004949363E414141227F4141413E7F4949D3
:1001B00049417F090909013E414151737F080808FF
:1001C0007F00417F41002040413F017F08142241D0
:1001D0007F404040407F021C027F7F0408107F3E2A
:1001E0004141413E7F090909063E4151215E7F0997
:1001F000192946264949493203017F01033F4040FE
:10020000403F1F2040201F3F4038403F63140814E8
:100210006303047804036159494D43007F41414120
:100220000204081020004141417F04020102044001
:1002300040404040000307080020545478407F2885
:100240004444383844444428384444287F3854547B
:10025000541800087E090218A4A49C787F0804049E
:100260007800447D40002040403D007F102844003D
:1002700000417F40007C047804787C0804047838CE
:1002800044444438FC1824241818242418FC7C08FE
:10029000040408485454542404043F44243C40407B
:1002A000207C1C2040201C3C4030403C442810282E
:1002B000444C9090907C4464544C44000836410077
:1002C0000000770000004136080002010204023CF1
:1002D0002623263C1EA1A161123A4040207A3854C0
:1002E0005455592155557941225454784221555439
:1002F000784020545579400C1E527212395555558C
:1003000059395454545939555454580000457C4176
:100310000002457D420001457C407D1211127DF0B6
:10032000282528F07C545545002054547C547C0AE0
:10033000097F4932494949323A4444443A324A48A9
:1003400048303A4141217A3A42402078009DA0A0AD
:100350007D3D4242423D3D4040403D3C24FF2424FF
:10036000487E4943662B2FFC2F2BFF0929F620C01E
:10037000887E090320545479410000447D4130486F
:10038000484A32384040227A007A0A0A727D0D19B2
:10039000317D2629292F28262929292630484D4014
:1003A00020380808080808080808382F10C8ACBA10
:1003B0002F102834FA00007B000008142A1422228F
:1003C000142A1408AA005500AAAA55AA55AA000082
:1003D00000FF00101010FF00141414FF001010FF95
:1003E00000FF1010F010F0141414FC001414F700A7
:1003F000FF0000FF00FF1414F404FC141417101F76
:1004000010101F101F1414141F00101010F0000003
:1004100000001F101010101F10101010F01000001E
:1004200000FF101010101010101010FF100000002E
:10043000FF140000FF00FF00001F10170000FC0465
:10044000F414141710171414F404F40000FF00F748
:1004500014141414141414F700F7141414171410AB
:10046000101F101F141414F4141010F010F00000DA
:100470001F101F0000001F14000000FC140000F0FB
:1004800010F01010FF10FF141414FF141010101FA0
:1004900000000000F010FFFFFFFFFFF0F0F0F0F0B1
:1004A000FFFFFF0000000000FFFF0F0F0F0F0F38CE
:1004B00044443844FC4A4A4A347E02020606027E1C
:1004C000027E0263554941633844443C04407E2027
:1004D0001E2006027E020299A5E7A5991C2A492A38
:1004E0001C4C7201724C304A4D4D303048784830C7
:1004F000BC625A463D3E494949007E0101017E2ABF
:100500002A2A2A2A44445F444440514A44404044F1
:100510004A51400000FF0103E080FF000008086B23
:100520006B083612362436060F090F06000018181D
:100530000000001010003040FF0101001F01011EEB
:1005400000191D1712003C3C3C3C0000000000005C
:10055000000000000000000000000000001FF0008C
:10056000000000FFFE00000003FFFF8000000FFFFF
:10057000FFE000001FFFFFF000007FFFFFFC000016
:10058000FFFFFFFE0001FFFFFFFF0003FFFFFFFF74
:100590008003FFF9FFFF8007FFF87FFFC007FFFC24
:1005A0003FFFC00FFFFC3FFFE00FFFFC1FFFE01FFE
:1005B000FFF81FFFF01FFFF80FFFF01FFFF80FFFFE
:1005C000F03FFFF007FFF83FFFF007FFF83FFFE0C5
:1005D00003FFF83FFFE003FFF83FFFC003FFF83FD2
:1005E000FFC001FFF83FFF8001FFF83FFF8001FFE0
:1005F000F83FFF0001FFF81FFF0001FFF01FFF00A1
:1006000001FFF01FFF0001FFF00FFF0001FFE00FEF
:10061000FF8003FFE007FFC007FFC007FFE00FFFF9
:10062000C003FFF83FFF8001FFFFFFFF0001FFFF56
:10063000FFFF0000FFFFFFFE00007FFFFFFC000048
:100640001FFFFFF000000FFFFFE0000003FFFF802F
:10065000000000FFFE000000001FF000000000008E
:10066000000000000000000000000000000000008A
:1006700011241FBECFE5D8E0DEBFCDBF10E0A0E65D
:10068000B0E0E4E7F1E202C005900D92A637B107B1
:10069000D9F724E0A6E7B0E001C01D92AA39B2075D
:1006A000E1F70E9417100C94B8100C9400002F92E0
:1006B0003F924F925F926F927F928F929F92AF92F2
:1006C000BF92CF92DF92EF92FF920F931F93CF933F
:1006D000DF93CDB7DEB727970FB6F894DEBF0FBE16
:1006E000CDBF4C013B012A01802F5E2D022F10E06F
:1006F000180127E0220E311C93E0359427949A9537
:10070000E1F7A12CB12CC12CD12C282F30E03A8359
:10071000298320E830E03EC0EE81FF8183E0F5953B
:10072000E7958A95E1F7EA0DFB1DE40DF51DE491CF
:10073000F0E08E819F8187709927B90102C075957D
:1007400067958A95E2F7E623F723EF2B71F0452FA3
:10075000B7018E819F81880D991D2C833D835B831A
:100760000E94430C5B813D812C818E819F8101968B
:100770009F838E8305C01F821E827601E60CF71CC4
:10078000EE81FF81E017F1073CF2FFEFCF1ADF0A9D
:10079000A20CB31C69817A81C616D70664F327962A
:1007A0000FB6F894DEBF0FBECDBFDF91CF911F9182
:1007B0000F91FF90EF90DF90CF90BF90AF909F9000
:1007C0008F907F906F905F904F903F902F90089503
:1007D0003F924F925F926F927F928F929F92AF92D1
:1007E000BF92CF92DF92EF92FF920F931F93CF931E
:1007F000DF93EC017B016A01302EA901461B570BE8
:1008000057FF03C0519541955109C6018C1B9D0BA3
:1008100097FF03C091958195910944244394512CED
:100820008417950714F0412C512C4114510451F0B8
:100830009C2D8D2D6901292F382F9C2F8D2FE7019D
:10084000E92EF82ECC16DD0654F49E2D8F2D79015D
:10085000292F382F9C2F8D2FE601C92ED82E560117
:10086000AC1ABD0A49018E189F0897FE03C09194E7
:10087000819491083501B7FE03C08FEF681A780A9A
:1008800075946794E216F3061CF401E010E017C0BB
:100890000FEF1FEF14C0432D4114510419F0BE0196
:1008A000C70102C0B701CE010E94430C6818790845
:1008B00077FE04C0E00EF11E6A0C7B1C2196CC165C
:1008C000DD064CF7DF91CF911F910F91FF90EF90D4
:1008D000DF90CF90BF90AF909F908F907F906F9060
:1008E0005F904F903F9008950F93480F591F4150CC
:1008F0005109022F9B010E94E8030F9108950F9365
:10090000460F571F41505109022F9A01AC010E9416
:10091000E8030F9108952F923F925F926F927F921A
:100920008F929F92AF92BF92CF92DF92EF92FF92FF
:100930000F931F93CF93DF9300D000D0CDB7DEB7D6
:100940008C017C836B83522EE42EF12CCC24C39437
:10095000D12CCE18DF08AA24BB24AE18BF08AA0CDD
:10096000BB1C6E0D7F1D422F0E94430C6B817C814E
:100970006E197F09452DC8010E94430C452D6B81DE
:100980007C81C8018E0D9F1D0E94430C452D6B81FB
:100990007C81C8018E199F090E94430C2224239454
:1009A000312CFA82E98250C0D7FC0AC08B819C812D
:1009B00001979C838B8392E0A90EB11CCA0CDB1CAF
:1009C0000F5F1F4FE2E02E0E311CC20CD31C8B8038
:1009D0009C808E0C9F1C452DB401C8010E94430CC5
:1009E000452DB401C8010E94430C8B809C808E1859
:1009F0009F08452DB401C8010E94430C452DB40148
:100A0000C8010E94430C69807A80600E711E452DDA
:100A10006B817C81C3010E94430C480189819A81CA
:100A2000881A990A452D6B817C81C4010E94430C70
:100A3000452D6B817C81C3010E94430C452D6B8148
:100A40007C81C4010E94430CEB81FC810E171F07BF
:100A50000CF4AACF0F900F900F900F90DF91CF91D1
:100A60001F910F91FF90EF90DF90CF90BF90AF90CC
:100A70009F908F907F906F905F903F902F90089500
:100A80002F923F924F925F926F927F928F929F929E
:100A9000AF92BF92CF92DF92EF92FF920F931F938C
:100AA000CF93DF9300D000D01F92CDB7DEB76C019B
:100AB0007D836C835A012801E982EE24E394F12CB2
:100AC000E41AF50A88249924841A950A880C991C3A
:100AD000860100951095040F151F1601220C331C7A
:100AE000240C351C66246394712C822F81708A83B8
:100AF00022702B8355C0F7FC0AC0EC81FD81319731
:100B0000FD83EC83F2E08F0E911CE80CF91C8FEF53
:100B1000C81AD80A92E0690E711CE60CF71CEA812B
:100B2000EE23D1F04C815D81440F551F4F5F5F4F25
:100B3000440D551DB5018C819D81681B790B298160
:100B4000C6010E947404A101460D571D2981B801F8
:100B50008C819D810E9474049B819923F9F04C81C2
:100B60005D81440F551F4F5F5F4F440D551DB5010B
:100B7000EC81FD816E1B7F0B2981C8018A199B09BD
:100B80000E947404A101460D571D2981B8018C8172
:100B90009D819195819591090E94740401501109DC
:100BA0008C819D81C816D9060CF4A5CF0F900F90AB
:100BB0000F900F900F90DF91CF911F910F91FF90A9
:100BC000EF90DF90CF90BF90AF909F908F907F90ED
:100BD0006F905F904F903F902F900895AF92BF928B
:100BE000CF92DF92EF920F931F93CF93DF936C011D
:100BF0005B01E22EC42FD0E0AE01440F551F4F5FC2
:100C00005F4FB5016C1B7D0B0E94740400E010E087
:100C100023E0AE01B501C6010E944005DF91CF91EE
:100C20001F910F91EF90DF90CF90BF90AF900895FC
:100C3000AF92BF92CF92DF92EF92FF920F93CF933A
:100C4000DF937C01EB016A015901202F0E947F0490
:100C5000BE016A0D7B1D61507109202FA601C701DD
:100C60000E947F04202FA501BE01C7010E947404C9
:100C7000C7018C0D9D1D202FA501BE010197DF919D
:100C8000CF910F91FF90EF90DF90CF90BF90AF90FA
:100C90000C947404AF92BF92CF92DF92EF92FF92C6
:100CA0000F93CF93DF936B017A015901EC01E80EAA
:100CB000F91E07C0202FA501B601CE010E947404C1
:100CC0002196CE15DF05B4F3DF91CF910F91FF9000
:100CD000EF90DF90CF90BF90AF9008952F923F920A
:100CE0004F925F926F927F928F929F92AF92BF923C
:100CF000CF92DF92EF92FF920F931F93CF93DF93E8
:100D0000CDB7DEB727970FB6F894DEBF0FBECDBFC5
:100D10005B01522E402E1E2D803891050CF071C0C3
:100D2000603471050CF06DC09C0156E0E59E200D0D
:100D3000311D1124121613060CF063C0EE2DF0E0E5
:100D4000FB83EA839B01F8E0EF9E200D311D112407
:100D5000121613060CF055C01C019F838E83F12CD4
:100D600074E5C72E70E0D72EC81AD90A25E0429F35
:100D7000C00CD11C112435E0F31631F0EE81FF8157
:100D8000EC0DFD1DE49001C0E12C2C823D8245015B
:100D9000350158E05983E0FE06C0113011F4452DAD
:100DA00007C0052D0CC0451499F0113039F4442DBD
:100DB000B3018E819F810E94430C0AC0042D212F14
:100DC00030E0412F50E0B4018C819D810E944A06A1
:100DD000E6948981815089839FEF691A790AEA81B3
:100DE000FB818E0E9F1E8111D6CFF3942E813F8101
:100DF0002F5F3F4F3F832E832E0E3F1E36E0F312B0
:100E0000BACF27960FB6F894DEBF0FBECDBFDF91E5
:100E1000CF911F910F91FF90EF90DF90CF90BF90F7
:100E2000AF909F908F907F906F905F904F903F908A
:100E30002F900895BF92CF92DF92EF92FF920F937F
:100E40001F93CF93DF93EA01122FF02EBE2C9093C5
:100E5000790480937804709377046093760486E035
:100E6000289F600111241AC0FE01219644916091CF
:100E7000760470917704E12E0B2D2F2D809178044C
:100E8000909179040E946E06809178049091790483
:100E90008C0D9D1D90937904809378048881811135
:100EA000E3CFDF91CF911F910F91FF90EF90DF90F3
:100EB000CF90BF900895BF92CF92DF92EF92FF92B2
:100EC0000F931F93CF93DF93122FF02EBE2C90938E
:100ED000790480937804709377046093760486E0B5
:100EE000289F60011124EA0117C060917604709177
:100EF0007704E12E0B2D2F2D8091780490917904A9
:100F00000E946E0680917804909179048C0D9D1D4D
:100F1000909379048093780449914111E6CFDF9151
:100F2000CF911F910F91FF90EF90DF90CF90BF90E6
:100F30000895AF92BF92CF92DF92EF920F93CF932B
:100F4000DF93CDB7DEB761970FB6F894DEBF0FBE63
:100F5000CDBF6C015B01CA014AE050E0BE016F5F8A
:100F60007F4F298B0E9473102989AC01B501C601FE
:100F70000E945B0761960FB6F894DEBF0FBECDBF2F
:100F8000DF91CF910F91EF90DF90CF90BF90AF9016
:100F900008953F924F925F926F927F928F929F92AD
:100FA000AF92BF92CF92DF92EF92FF920F931F9377
:100FB000CF93DF936C015B0188248394912C841A76
:100FC000950A66247724641A750A660C771C7A01E0
:100FD000C0E0D0E0B4E03B2E3222122F127088E045
:100FE000582E522244244394422261C097FC08C0E8
:100FF00081E0E81AF10882E0680E711C860C971CEB
:101000002196CE01880F991F0196880E991E3320D4
:1010100091F0B5016E0D7F1D402FCE018C0D9D1DF1
:101020000E94430CBE016A0D7B1D402FC6018E0D30
:101030009F1D0E94430C112391F0B5016E197F0989
:10104000402FCE018C0D9D1D0E94430CB5016C1BE1
:101050007D0B402FC6018E0D9F1D0E94430C552015
:1010600091F0BE016A0D7B1D402FC6018E199F09AC
:101070000E94430CB5016E0D7F1D402FC6018C1BD5
:101080009D0B0E94430C442091F0B5016C1B7D0B1D
:10109000402FC6018E199F090E94430CB5016E199D
:1010A0007F09402FC6018C1B9D0B0E94430CCE155F
:1010B000DF050CF49BCFDF91CF911F910F91FF9033
:1010C000EF90DF90CF90BF90AF909F908F907F90E8
:1010D0006F905F904F903F9008952F923F924F9264
:1010E0005F926F927F928F929F92AF92BF92CF92B8
:1010F000DF92EF920F931F93CF93DF9300D000D036
:1011000000D0CDB7DEB71C014B015C834B833901A6
:101110001E830D835801B194A194B108AA0CBB1C85
:101120002A014A0C5B1C6801C20CD31C2E2DA201A3
:10113000C6010E947F04C401860D971D9A8389838E
:10114000BC01615071092E2DA201C6010E947F04CD
:10115000A60CB71CED81FE818E0E9F1E2E2DA501C3
:10116000B401C1010E9474048B819C81280E391E38
:101170002E2DA501B401C10101970E9474040E2D0A
:1011800021E04D815E81B401C6010E94C907ED8155
:10119000FE812E1A3F0AF1E02F1A310822E04D811C
:1011A0005E81B401C1010E94C907A980BA808D8106
:1011B0009E81A81AB90A91E0A91AB10824E04D81CC
:1011C0005E81B501C1010E94C90728E04D815E81A1
:1011D000B501C6010E94C90726960FB6F894DEBF76
:1011E0000FBECDBFDF91CF911F910F91EF90DF9098
:1011F000CF90BF90AF909F908F907F906F905F90B7
:101200004F903F902F9008952F923F924F925F9270
:101210006F927F928F929F92AF92BF92CF92DF9206
:10122000EF92FF920F931F93CF93DF934C013B01FB
:101230001A016901C02FD0E0442455244C1A5D0ADC
:10124000440C551C5C01AC0EBD1E440D551D0E2DED
:101250009601C5010E944A06C40CD51C81E0C81A3B
:10126000D1086C0E7D1EC401820D931D8C1B9D0B3D
:10127000860121E0AE01B30101970E94400522E002
:10128000AE01B301C5010E944005DF91CF911F91CE
:101290000F91FF90EF90DF90CF90BF90AF909F9015
:1012A0008F907F906F905F904F903F902F90089518
:1012B0004F925F926F927F928F929F92AF92BF9266
:1012C000CF92EF92FF920F931F93CF93DF93EC0196
:1012D0005B014A01390128010C2D0E94E8039701A6
:1012E000A201B301C4010E94E8039501AE01B70158
:1012F000C2010E94E803DF91CF911F910F91FF90EF
:10130000EF90CF90BF90AF909F908F907F906F9015
:101310005F904F9008952F923F924F925F926F92FD
:101320007F928F929F92AF92BF92CF92DF92EF9275
:10133000FF920F931F93CF93DF93CDB7DEB7A9979B
:101340000FB6F894DEBF0FBECDBF4C013B015A0172
:1013500039A728A72701C98A261737074CF4872DF4
:10136000390168A789A7982D892D4A01A92EB82E81
:1013700028A539A5421653065CF498A589A559A657
:1013800048A6492E582E9A2D8B2D5801092F182F1B
:1013900048A559A54615570554F4962D872D3A01B1
:1013A00098A789A7982D892D4501A92EB82E6414D8
:1013B0007504C1F5A814B90434F08A149B0434F000
:1013C000A401C40105C0A401C50102C0A501C40156
:1013D0000817190724F0401751071CF003C0C80173
:1013E00001C0A801481B590B4F5F5F4F2989B3010A
:1013F000A9960FB6F894DEBF0FBECDBFDF91CF9197
:101400001F910F91FF90EF90DF90CF90BF90AF9022
:101410009F908F907F906F905F904F903F902F9014
:101420000C947F04C5018819990928A539A52619A6
:101430003709B801681979097E836D83D201A6192D
:10144000B709BA87A987F801EA19FB09FE87ED8772
:10145000A20168A579A5461B570B5B8B4A8B6415C7
:10146000750529F0615071097F8B6E8B04C0A8A5AA
:10147000B9A5BF8BAE8B1301C12CD12C760119827B
:101480001A821B821C82A901662757FD6095762F60
:10149000488F598F6A8F7B8F29853A85442737FD7E
:1014A0004095542F2C8F3D8F4E8F5F8FAC01662758
:1014B00057FD6095762F48A359A36AA37BA36D813E
:1014C0007E81882777FD8095982F6CA37DA38EA3BE
:1014D0009FA344C069817A818B819C81288D398D3D
:1014E0004A8D5B8D0E9435108401020F131FC701C6
:1014F000B6012C8D3D8D4E8D5F8D0E943510280DCF
:10150000391D89819A81AB81BC8148A159A16AA109
:101510007BA1840F951FA61FB71F89839A83AB8376
:10152000BC836CA17DA18EA19FA1C60ED71EE81E13
:10153000F91E201731072CF4902F812F8901292FB4
:10154000382FA901401B510B4F5F5F4F2989B10113
:10155000C8010E947F047FEF271A370A8E899F896E
:10156000821593050CF0B6CFC101A8A5B9A58A1BB9
:101570009B0BED85FE85E89F6001E99FD00CF89FED
:10158000D00C1124EE24D7FCE094FE2C91012619F6
:1015900037094D815E81429FC001439F900D529F4C
:1015A000900D11249C01442737FD4095542F298329
:1015B0003A834B835C834A895B89662757FD609534
:1015C000762F4A8B5B8B6C8B7D8B69857A85882720
:1015D00077FD8095982F69877A878B879C87CF01C5
:1015E000AA2797FDA095BA2F8D879E87AF87B88BC6
:1015F0002D813E81442737FD4095542F2D833E8316
:101600004F83588744C0C701B6012A893B894C895A
:101610005D890E9435108501020F131F69817A814F
:101620008B819C8129853A854B855C850E9435108C
:10163000280D391D4D855E856F857889C40ED51EB0
:10164000E61EF71E89819A81AB81BC814D815E8146
:101650006F817885840F951FA61FB71F89839A8392
:10166000AB83BC83201731072CF4902F812F890185
:10167000292F382FA901401B510B4F5F5F4F29893C
:10168000B101C8010E947F045FEF251A350A421498
:1016900053040CF0B8CFA9960FB6F894DEBF0FBE76
:1016A000CDBFDF91CF911F910F91FF90EF90DF9011
:1016B000CF90BF90AF909F908F907F906F905F90F2
:1016C0004F903F902F9008951F93CF93DF931F92D9
:1016D000CDB7DEB7182F86E269830E94250C80E023
:1016E0000E94250C812F0E94250C80E00E94250C71
:1016F0006981862F0E94250C81E00E94250C8FEFC6
:101700000E94250C8FE20F90DF91CF911F910C94D6
:10171000250C1F93CF93DF931F92CDB7DEB7182F01
:1017200087E269830E94250C80E00E94250C812FAE
:101730000E94250C80E00E94250C6981862F0E9462
:10174000250C81E00E94250C8FEF0E94250C8FE272
:101750000F90DF91CF911F910C94250C1F93CF9385
:10176000DF931F92CDB7DEB7182F83EA69830E94FB
:10177000250C80E00E94250C80E40E94250C89E263
:101780000E94250C80E00E94250C812F0E94250CD0
:1017900080E00E94250C6981862F0E94250C81E043
:1017A0000E94250C8FE20F90DF91CF911F910C9436
:1017B000250C1F93CF93DF931F92CDB7DEB7182F61
:1017C00083EA69830E94250C80E00E94250C80E456
:1017D0000E94250C8AE20E94250C80E00E94250CC4
:1017E000812F0E94250C80E00E94250C6981862FA4
:1017F0000E94250C81E00E94250C8FE20F90DF9162
:10180000CF911F910C94250C8EE20C94250C88230B
:1018100011F087EA01C086EA0C94250C28E030E03C
:1018200090E8AF98492F482311F0AE9A01C0AE98C6
:10183000AF9A969521503109A1F70895A69AA79AD3
:10184000AF9AA59AAD9AA49A0895AC980C940E0CF0
:10185000AC9A0C940E0CCF93DF9380E00E94250C81
:1018600080E10E94250C80E40E94250CAC9AC6E71A
:10187000D0E089910E940E0C84E0C637D807C9F7E2
:10188000DF91CF9108958038910530F577FD24C020
:10189000603471050CF5FB0123E0F595E7952A9579
:1018A000E1F767707727F695FE2FEE27F795E79516
:1018B000E80FF91FEA58FF4F81E090E0062E01C0C3
:1018C000880F0A94EAF7442319F09081982B03C0FB
:1018D0008095908198239083089580E094E0E6E7D6
:1018E000F0E0DF019C011D9221503040E1F70895A6
:1018F0000F931F93CF93DF931F92CDB7DEB7182FAF
:10190000062F49830E941E0C498141110FC0AD9AD8
:101910008FE493EC0197F1F700C00000AD98EFE47D
:10192000F3EC3197F1F700C00000AD9A8EEA0E9407
:10193000250C85ED0E94250C802F0E94250C88EA3D
:101940000E94250C8FE30E94250C83ED0E94250C3C
:1019500080E00E94250C80E40E94250C8DE80E9406
:10196000250C113011F480E101C084E10E94250CA6
:1019700080E20E94250C80E00E94250C81EA0E94F2
:10198000250C88EC0E94250C8AED0E94250C82E132
:101990000E94250C81E80E94250C113011F48FE97A
:1019A00001C08FEC0E94250C89ED0E94250C11309E
:1019B00011F482E201C081EF0E94250C88EA0E94A6
:1019C000250C8FE30E94250C8AED0E94250C82E1F4
:1019D0000E94250C8BED0E94250C80E40E94250CB2
:1019E00084EA0E94250C86EA0E94250C8FEA0E9458
:1019F000250C0F90DF91CF911F910F910C942B0C20
:101A0000AF92BF92CF92DF92EF92FF920F931F930C
:101A1000CF93DF9300D0CDB7DEB7F42EF2947FE002
:101A2000F72290E1F92A062F10E0080F111DEFE0D0
:101A3000DE2ED422F0EBEF2EE60EC42EC39421C08E
:101A40008D2D2A8349830E94250C8F2D0E94250C01
:101A50008E2D0E94250CAC9A2A814981421780F470
:101A600085011695102F002717950795040F111D56
:101A70000A581F4FF80181918F010E940E0CFACF76
:101A80008C2DA82EB12CA016B106D4F20F900F9079
:101A9000DF91CF911F910F91FF90EF90DF90CF904A
:101AA000BF90AF900895FC01680F791F80E048E176
:101AB0000FC0219198E0322F3827532F517030FDFD
:101AC00084278695513009F480682695915099F7BE
:101AD000E617F70771F708950F931F93CF93DF93DE
:101AE000CDB7DEB760970FB6F894DEBF0FBECDBF9F
:101AF00090E1E0E6F0E0DE01119601900D929A95FA
:101B0000E1F7DB019C911196FC91E0E0E92B80313B
:101B100079F4DF01AE7FE3E0AA0FBB1FEA95E1F79E
:101B2000FB019681ECE0F0E0E91BF109EA0FFB1FF5
:101B3000F7FF07C091E0DA019C93F195E195F10977
:101B400002C0DA011C92883281F4DB0114968C9178
:101B5000982F9076903649F086FF02C0EE7F05C040
:101B600085FF02C0EC7F01C0E87FCF0144E096957D
:101B700087954A95E1F7D9018C93EF70FF27EC0F19
:101B8000FD1F8181F801808380E060960FB6F89494
:101B9000DEBF0FBECDBFDF91CF911F910F91089592
:101BA000882319F0719561957109442319F03195D5
:101BB00021953109621773074CF081E090E02617F8
:101BC000370714F080E090E09C0102C02FEF3FEF58
:101BD000C90108950F931F93CF93DF93EC018B01FD
:101BE000B80188810E94860F888381508D3F30F430
:101BF000F8018081883211F0803191F7DF91CF9127
:101C00001F910F910895FF920F931F93CF93DF932E
:101C1000CDB7DEB729970FB6F894DEBF0FBECDBFA4
:101C20008FEF89870AE714E0F12C1DC0BE016F5FBA
:101C30007F4FCE0109960E94EA0D89858F3FC9F03A
:101C40008E3FB9F0FE01319620E030E08191D8015D
:101C5000A20FB31F8C932F5F3F4F28303105B1F790
:101C6000F394085F1F4F8985882319F084E0F812E8
:101C7000DDCF8F2D29960FB6F894DEBF0FBECDBFF6
:101C8000DF91CF911F910F91FF900895CF93DF9334
:101C9000EC010E94420F81110FC0BE0184EB0E9433
:101CA000D20F81E00E945E0FC82F0E94420F81E098
:101CB000C11103C080E001C081E0DF91CF910895A0
:101CC0001F93CF93DF93182FEB010E94420F8111D6
:101CD0000DC00E94390F882359F0BE0184E40E9490
:101CE000D20F113039F00E943C0F04C081E003C0D4
:101CF00082E001C080E0DF91CF911F9108956F9243
:101D00007F928F929F92AF92BF92CF92DF92EF928B
:101D1000FF920F931F93CF93DF93CDB7DEB7299731
:101D20000FB6F894DEBF0FBECDBF6C015B014A0158
:101D300089010E94420F811128C0B6018EEB0E94DA
:101D4000D20FEE24E394F12CEC0EFD1E3E018AE04E
:101D5000680E711C0E94830FF70181937F01E615C5
:101D6000F705C1F769E070E0CE0101960E94530DBE
:101D700081110DC09401A501BE016F5F7F4FF60177
:101D800080810E946C0D80E003C081E001C083E08F
:101D900029960FB6F894DEBF0FBECDBFDF91CF916D
:101DA0001F910F91FF90EF90DF90CF90BF90AF9079
:101DB0009F908F907F906F9008957F928F929F92C7
:101DC000AF92BF92CF92DF92EF92FF920F931F9349
:101DD000CF93DF93CDB7DEB729970FB6F894DEBF68
:101DE0000FBECDBF782E6B015A0189010E94420FB0
:101DF000811128C060E070E08EEB0E94D20FEE24CB
:101E0000E394F12CEC0EFD1E4E018AE0880E911C2D
:101E10000E94830FF70181937F01E815F905C1F74F
:101E200069E070E0CE0101960E94530D81110CC053
:101E30009501A601BE016F5F7F4F872D0E946C0D3B
:101E400080E003C081E001C083E029960FB6F894DA
:101E5000DEBF0FBECDBFDF91CF911F910F91FF90DD
:101E6000EF90DF90CF90BF90AF909F908F907F903A
:101E7000089586B382700895C19AB99A0895C19859
:101E8000B9980895C198B99A8FEB93E00197F1F74B
:101E900000C000009FB7F894B998E0EBEA95F1F71D
:101EA00086B39FBFEBE3F3E03197F1F700C000008A
:101EB000B19B02C08270089581E008959FB7F894A5
:101EC000B99A22E02A95F1F700C08111B99828E269
:101ED0002A95F1F7B19B80E028E72A95F1F7B998A8
:101EE0009FBF0895CF93DF93C82FD8E08C2F8170C8
:101EF0000E945E0FC6958111C068D150B9F78C2F32
:101F0000DF91CF9108958FEF0C94720FDF92EF92D3
:101F1000FF920F931F93CF93DF93E82EEB010E9464
:101F2000420F811131C080EF0E94720FF12C10E43A
:101F300098EFD92ED10E81E00E945E0F082F81E02C
:101F40000E945E0F882319F0002369F020C0011160
:101F50000AC01E1530F0888180FF05C0E11201C063
:101F600002C0F12E01E0802F0E945E0F98819695AD
:101F7000011101C001C09068988311501D11DBCF81
:101F800021961111D5CF05C0FF24FA9402C08EEF1F
:101F9000F82E8F2DDF91CF911F910F91FF90EF9031
:101FA000DF900895FF920F931F93CF93DF93F82E46
:101FB000EB010E94420F209769F085E50E94720FA5
:101FC0008E01085F1F4F89910E94720FC017D107C1
:101FD000D1F703C08CEC0E94720F8F2DDF91CF914F
:101FE0001F910F91FF900C94720FEF920F93882323
:101FF000D1F0C1982FEF89E698E1215080409040C0
:10200000E1F700C00000EE24E39400E120E14FE49A
:1020100055E060E370E080E390E00E9457030F9189
:10202000EF900C942B0CC19A0F91EF90089540E023
:1020300060EF82E00E94780C81E80E94250C80E02D
:102040000E94250CEE24E39400E022E040E750E0FB
:1020500064E170E08AE090E00E945B0767E081E065
:102060000E94640B0E942B0CFFCF052E97FB16F4E9
:10207000009407D057FD0DD00E94511007FC09D0E5
:102080007EF490958095709561957F4F8F4F9F4F0F
:10209000089550954095309521953F4F4F4F5F4F94
:1020A0000895A1E21A2EAA1BBB1BFD010DC0AA1F99
:1020B000BB1FEE1FFF1FA217B307E407F50720F0B1
:1020C000A21BB30BE40BF50B661F771F881F991F2C
:1020D0001A9469F760957095809590959B01AC0175
:1020E000BD01CF010895FB019F01E8944230C4F087
:1020F0004532B4F44A3029F497FB1EF4909581954B
:102100009F4F642F77270E94A410805D8A330CF0C4
:10211000895D8193CB010097A1F716F45DE251939D
:102120001082C9010C949410DC01FC01672F71919D
:102130007723E1F7329704C07C916D9370836291AD
:10214000AE17BF07C8F30895AA1BBB1B51E107C018
:10215000AA1FBB1FA617B70710F0A61BB70B881F37
:10216000991F5A95A9F780959095BC01CD010895C6
:04217000F894FFCF11
:102174000001010202030404050606070708090911
:06218400416E69610000DC
:00000001FF
